S00E000073706943414E2E73726563F8
S1130000B0240020190100001501000015010000B2
S113001000000000000000000000000000000000DC
S113002000000000000000000000000015010000B6
S11300300000000000000000150100001501000090
S11300401501000015010000150100001501000054
S11300501501000015010000150100001501000044
S11300601501000015010000150100001501000034
S11300701501000015010000150100001501000024
S11300801501000015010000150100001501000014
S11300901501000000000000000000001501000030
S11300A015010000150100001501000015010000F4
S11300B00000000010B5064C2378002B07D1054B37
S11300C0002B02D0044800E000BF0123237010BDC0
S11300D03C04002000000000D4250000084B10B5AB
S11300E0002B03D00749084800E000BF0748036815
S11300F0002B00D110BD064B002BFBD09847F9E72D
S11301000000000040040020D4250000D425000095
S113011000000000FEE70000F8B52A4A2A4B9A4284
S113012011D01A00294B9A420DD2294A03339B1A43
S11301309B0801339B000022234822498C58845099
S113014004329A42FAD1234A234B9A420AD2D34325
S113015021495B1803218B4304339B18002102C2FD
S11301609342FCD11D4AFF211D4B8B439360FD3903
S113017090235B001B4AD1501B4AD3780325AB4321
S113018002242343D370D3780C27BB43082633437C
S1130190D370164B987B30229043202210439873DF
S11301A0997BB943314399739A7BAA4322439A7347
S11301B00F4A536880210B4353600E4B98470E4BF4
S11301C09847FEE7D4250000000000203C040020EE
S11301D0040000203C040020B004002000ED00E0F6
S11301E00000000000700041005000410048004140
S11301F000400041E9220000F1020000014A024BE4
S11302001A60704740420F0000000020044B1900A0
S11302100831FF221A7001338B42FBD17047C0466C
S11302200400002010B50A4B98470A4A0A4B0B4CAD
S1130230A0470B4B984784B20A4B98470A4BDC7093
S1130240240A1C71082201210848094CA04710BD4A
S1130250AD1F00007B14AE47E17AC43FB112000029
S1130260751200000D02000004000020A304F00C2D
S1130270610C0000D0B50B4B98470B4A0B4B0C4C50
S1130280A04706000F000B4B98470B4C3000390079
S11302900A4B984760702300082201210848094C42
S11302A0A047D0BDAD1F00009A9999999999D93F5B
S11302B0B11200000D0200000400002075120000BD
S11302C0A3FCFE18610C000010B50400044B984711
S11302D0044BDC71082201210348044CA04710BDE3
S11302E00D02000004000020A314FF18610C00009C
S11302F0F0B5DE46574680B583B0504B9847504A18
S1130300136A50490B4013624F4B98474F4B984721
S11303100E2100204E4B98474E4B984704004E4EFA
S1130320310000204D4DA84731000120A8474C4E14
S11303303200012100204B4DA84732000121022048
S1130340A847494F3B1D01931FE04848484B984735
S11303500020484B98476420474B98470020474B60
S11303609847474B013B002BFCD14648434B9847E9
S11303700020414B9847444B013B002BFCD101200A
S11303803C4B9847334B98470400612CDDD0622CDA
S113039030D0632C38D0642C45D0652CF2D12D4B51
S11303A0984783460028EDDD00239A4601239C46A6
S11303B0E244364A39000198354B98473A787B68CD
S11303C09901890B33482A4B98473B78002B0BD073
S11303D000242E4E264D315D2F48A8470134E4B247
S11303E0214B1B78A342F6D82C48214B9847DA4579
S11303F0DCDBC7E72A481E4CA047164B98471E4B28
S113040098472848A047BDE72748194DA847114EEB
S1130410B0470400B0472402204380B2174B9847EA
S11304202048A847AEE72148114CA047094B9847FC
S1130430104B98471B48A047A4E7C046FD010000A5
S113044000080040FFFCFFFFAD100000CD0F0000CE
S1130450090D00004911000000FFFF03910A00008C
S1130460A314FF18110B0000580400208824000076
S1130470D10D0000C9020000750200002502000031
S1130480000E2707B80B0000809698000400002097
S1130490BD0C0000CC240000002500000425000051
S11304A094240000A4240000B0240000C024000010
S11304B010B5054C2078054B9847C020044B98474D
S11304C02078044B984710BD8A0400208510000052
S11304D05D1000009910000070B50600084D2878E2
S11304E0084B98470320084CA0473000A047002041
S11304F0A04704002878054B9847200070BDC046EB
S11305008A040020851000005D100000991000008E
S1130510F8B507000E0015000E4B18780E4B9847DF
S113052003200E4CA0473800A047002D0DD0340006
S1130530013DEDB275190836084F0020B847207008
S1130540AC4202D00134B442F7D1024B1878044BC8
S11305509847F8BD8A040020851000005D10000053
S113056099100000F8B507000E00074D2878074BD6
S113057098470220064CA0473800A0473000A04707
S11305802878044B9847F8BD8A04002085100000A1
S11305905D10000099100000F8B507000E0015006A
S11305A00D4B18780D4B984702200D4CA04738008E
S11305B0A047002D0AD03400013DEDB20135751974
S11305C0074E2078B0470134AC42FAD1024B187878
S11305D0044B9847F8BDC0468A04002085100000EB
S11305E05D10000099100000F0B583B007000E0004
S11305F00192094D2878094B98470520084CA047DB
S11306003800A0473000A0470198A0472878054B40
S1130610984703B0F0BDC0468A040020851000004E
S11306205D1000009910000070B5074C2078074B4E
S11306309847A020064DA8470020A8470500207829
S1130640044B9847280070BD8A04002085100000E0
S11306505D1000009910000010B504000200E021B4
S11306600F20064B98470F20054B9847E02318406E
S1130670001B431E9841C0B210BDC046E9050000EE
S1130680D904000070B5102845D88000274B1B58AA
S11306909F468726FF250F2132E00726BE25092124
S11306A02EE08726FF2507212AE08726FA25072141
S11306B026E08726FF25032122E00726BE25032105
S11306C01EE00726AD2503211AE08726FA2503211B
S11306D016E08626F025032112E08726FA2501215B
S11306E00EE08526F12541210AE08626F025002129
S11306F006E08226D025002102E08726FF253F213F
S11307002A200B4CA04729002920A047310028208B
S1130710A047002070BD0120FCE78726FF251F218C
S1130720EEE78526F1250F21EAE7C04608250000FB
S11307306505000030B583B093B2012912D001A938
S1130740DB080B7052014A700023CB708B700422BB
S113075001A90D4B9847FA235B00013B002BFCD108
S113076003B030BD01A9CA701B0A8B70120CD4B23D
S11307700323234008252B43E4001F25AC432343D4
S11307804B7052090A70E2E79905000030B583B056
S113079093B2012913D001A9CA701B0A8B70120CE1
S11307A053014B70D2080A70042201A90D4B9847DB
S11307B0FA235B00013B002BFCD103B030BD01A93F
S11307C0CA701B0A8B70120CD4B203232340082571
S11307D02B43E4001F25AC4323434B7052090A709A
S11307E0E2E7C0469905000070B5002201212020EF
S11307F01C4CA047002201212420A04700220121F3
S11308000020A047002200210420A047002201214B
S11308100820A047002200211020A0470022012127
S11308201420A047002200211820A04730240E4D98
S113083000212000A84720001030C0B20021A847A2
S113084020002030C0B20021A8470134E4B23E2C7D
S1130850EED100216020044CA04700217020A04765
S113086070BDC0468D0700006505000070B5050029
S1130870214B9847214B013B002BFCD18020204B7E
S11308809847041E06D0FA235B00013B002BFCD1E1
S1130890200070BDFA235B00013B002BFCD1280033
S11308A0184B9847002804D0144B013B002BFCD173
S11308B0EEE7124B013B002BFCD1134B984703216D
S11308C02B20124B9847042264216020104CA0472F
S11308D0002260217020A0470020094B9847041E85
S11308E004D0064B013B002BFCD1D1E7034B013B69
S11308F0002BFCD1CCE7C046B1040000DC050000AD
S11309005906000085060000E9070000650500009F
S1130910E905000070B582B00D00140000230B70CF
S1130920136001AE042231000C4B9847727833787F
S1130930DB0051095B18236011070DD59B000321CF
S11309400A409B181B0201AA91785B181B02D278FB
S11309509B18236001232B7002B070BD11050000A9
S113096010B504000F4B1A780530C0B20E490F4B76
S113097098470F4B1B78012B0DD00A4B1978201D7B
S1130980C0B20C4B98470C4B1A680C4B19782000DA
S11309900B4B984710BD034A137840210B43137047
S11309A0EBE7C0468B04002080040020990500007A
S11309B078040020650500007C04002088040020E1
S11309C03507000070B504000F4A1049104B9847D2
S11309D0601EC0B20F4DA8470600201DC0B2A84734
S11309E033070CD400220C4B1A700F2202400B4B1D
S11309F01A700534E0B20A490A4B984770BD0122C7
S1130A00054B1A70F1E7C0467C04002088040020DE
S1130A1015090000D9040000780400208B0400208C
S1130A20800400201105000010B50138C0B208226E
S1130A300821014B984710BDE9050000F0B5CE46EA
S1130A40474680B583B0804601AB30221A7010321D
S1130A505A7010329A7000230370002401AE0B4BBD
S1130A6099460827A55D2800C847074208D00134E5
S1130A70032CF7D1022003B00CBC90469946F0BD7C
S1130A80013543461D700020F5E7C046D904000037
S1130A9070B505000C001B4B013B002BFCD18020E2
S1130AA0194B9847FA235B00013B002BFCD100282B
S1130AB004D0144B013B002BFCD170BDFA235B0026
S1130AC0013B002BFCD1E10F002D0BD0012D0ED0EA
S1130AD000200D4B984700280ED00A4B013B002BF9
S1130AE0FCD1EAE722002020084B9847F0E72200D7
S1130AF02420064B9847EBE7024B013B002BFCD12B
S1130B00DBE7C046DC050000590600008D07000045
S1130B1070B506000C001500254B013B002BFCD1E1
S1130B208020244B9847002804D0214B013B002B04
S1130B30FCD170BDFA235B00013B002BFCD1052ED8
S1130B4008D8B6001C4B9B599F462A002100002060
S1130B501A4B98470020174B9847002822D0144B73
S1130B60013B002BFCD1E4E72A0021000420134BB5
S1130B709847EFE72A0021000820104B9847E9E73F
S1130B802A00210010200D4B9847E3E72A0021009A
S1130B9014200A4B9847DDE72A0021001820074B50
S1130BA09847D7E7024B013B002BFCD1C1E7C04675
S1130BB0DC050000590600004C2500008D070000EC
S1130BC010B5074C21700749086007490A700022D4
S1130BD00648995C81540132082AFAD1002010BDDC
S1130BE0880400207C0400208B0400208004002062
S1130BF0F0B583B00024164D6B46D81DA8470134C8
S1130C00A4B2022803D1322CF6D1043002E006202B
S1130C10322C01D103B0F0BD6B46DC1DD8790D4BED
S1130C20984720780C4B984700246B46DD1D0B4FEA
S1130C3008260134A4B22878B847304003D0322CB7
S1130C40F7D10720E6E7322CE4D10720E2E7C046DB
S1130C503D0A000061090000290A0000D9040000CF
S1130C6010B5024CA047024B984710BDC10B0000C1
S1130C70F10B000010B50E4B9847C30704D40423AE
S1130C8082070BD4180010BD61200A4B984700223C
S1130C9001212C20084B98470023F3E77120054BD2
S1130CA09847002202212C20034B98470023E9E7B0
S1130CB029060000C5090000E905000070B506001A
S1130CC00D0014000C4B9847002813D10B4B1A78D5
S1130CD02A700B4A126832601B78002B0ADD00234D
S1130CE0084D0649EA5CE25401330A789A4201DD70
S1130CF0082BF7D170BDC046750C00008B04002092
S1130D007C0400208004002010B5044B18700800F7
S1130D10034B9847431E9841C0B210BD8A0400207B
S1130D206D080000024A1368591C1160187070475E
S1130D306004002010B53023092805D9064B1A7920
S1130D403723002A00D120331818C0B2034B984728
S1130D500122014B5A7110BD60040020250D0000D2
S1130D6010B50E4B1A899A60824210D30023121ACE
S1130D700133DBB29042FAD908498A604A79002AE1
S1130D8001D1002B02D01800054B984710BD034B2E
S1130D905B79002BFAD00023F5E7C04660040020FD
S1130DA0350D00000A2808D0084901220B7E1342A1
S1130DB0FCD080B2054B18857047044901220B7E94
S1130DC01342FCD00D22014B1A85EDE700080042C6
S1130DD00FB4F0B5DE4657464E464546E0B587B0FB
S1130DE010AB80CB0593734B0C330293714B9A4633
S1130DF0714B984653460C3303938CE07B78302B2D
S1130E0029D002370022934600241A00303A092AD6
S1130E100CD8A200A4186400303CE418E4B27A1C94
S1130E203B781700190030390929F2D9614A02992F
S1130E30116000225F494A71632B00D17DE00FD815
S1130E40252B00D186E0582B11D0002B00D1A6E031
S1130E50584D0C353CE0BB78033701229346D3E769
S1130E60732B72D01BD9752B1BD0782BF0D1514D1D
S1130E70583B594259412971059B1A1D05921B681B
S1130E80AB60802040014D4EB04780204000B04709
S1130E901020B047287A4A4B98470C3518E0642B49
S1130EA0D6D1059A111D0591126842498A60642BB6
S1130EB03BD04448414DA847FA208000A84764200D
S1130EC0A8470A20A8473B4D287A3D4B98470C3544
S1130ED000235246126813706B1C994653464A46C7
S1130EE01A602878002855D0002C0CD0AA1C631E48
S1130EF0DBB21100561E3678002E3CD001321C1E87
S1130F00F5D12C4B196028784D46C04701356B1E2E
S1130F1018780028F9D13878002840D0252800D145
S1130F206CE70137244B9847F5E7002AC1DA5242AF
S1130F308A602D20244B9847BBE7059B1A1D059218
S1130F401878214B9847039DC2E7059B1A1D05920B
S1130F501D68BDE725201C4B9847164D0C35B7E797
S1130F601E000198A047731EDBB2002EF8D128782A
S1130F700028C9D1CFE70F4A1160023CE6B2002B2A
S1130F80C2D020245B46002B00D03024E3B201936E
S1130F90094CE6E7661EF6B2002CF2D1BBE707B0B7
S1130FA03CBC90469946A246AB46F0BC08BC04B093
S1130FB01847C04660040020A50D0000610D000024
S1130FC0350D000010270000250D0000194B0021ED
S1130FD0522299548022D2029A60174A136A1749FE
S1130FE00B401362164A136A08210B431362154A15
S1130FF0154B5A801A005378DB09FCD1134A144B61
S1131000116819608021890259609F211973516800
S1131010084A91628022D2020E490A600E490A608F
S11310201A6802210A431A601A00D3699B07FCD488
S11310307047C0460044004100080040FFFCFFFF29
S11310400004004015400000000C0040642500002E
S1131050000C00420844004118440041084A137E31
S1131060DB07FCD5064B98621A00137E5B07FCD5A0
S1131070034B986AC0B21A00137E9B07FCD57047D5
S1131080000C0042002803D18022D202014B1A60D6
S11310900120704714440041002803D18022D20269
S11310A0014B1A6001207047184400411F4A136A1B
S11310B004210B4313621E4B832252025A601D4AC1
S11310C05A801D4B03394A229954063101329954EE
S11310D02E315A5C0F208243022002435A54585C3A
S11310E00F220240202002435A54144B1A68333909
S11310F08A431A60124A1A601A00D369002BFCD181
S1131100104A0E4B9A811A00D369002BFCD1C022DD
S113111092020A4B5A601A00D369002BFCD1074A89
S1131120136802210B4313607047C046000400405B
S1131130000C00401440000000440041000800423C
S11311400400314015FBFFFF034A137E5B07FCD507
S1131150014B188DC0B270470008004200224308BA
S11311608B4274D303098B425FD3030A8B4244D36B
S1131170030B8B4228D3030C8B420DD3FF220902AD
S113118012BA030C8B4202D31212090265D0030B6C
S11311908B4219D300E0090AC30B8B4201D3CB0362
S11311A0C01A5241830B8B4201D38B03C01A5241A4
S11311B0430B8B4201D34B03C01A5241030B8B42A6
S11311C001D30B03C01A5241C30A8B4201D3CB0291
S11311D0C01A5241830A8B4201D38B02C01A524176
S11311E0430A8B4201D34B02C01A5241030A8B4279
S11311F001D30B02C01A5241CDD2C3098B4201D391
S1131200CB01C01A524183098B4201D38B01C01A0E
S1131210524143098B4201D34B01C01A5241030985
S11312208B4201D30B01C01A5241C3088B4201D334
S1131230CB00C01A524183088B4201D38B00C01AE1
S1131240524143088B4201D34B00C01A5241411A08
S113125000D20146524110467047FFE701B5002015
S113126000F006F802BDC0460029F7D076E77047C3
S11312707047C04670B500220C4B04000D0000F00E
S11312800BFF002804D12000290000F05BFE70BD94
S1131290064B00222000290000F03EFB00F052FE25
S11312A080231B069C466044F1E7C0460000E041F1
S11312B0F0B557464546DE464E46E0B54C000E03B3
S11312C087B0834692461D008046360B640DCF0FCF
S11312D0002C4FD06F4B9C4235D08023420F1B040F
S11312E0F600134333439946C30098466A4B0026DD
S11312F09C460023644403932B031B0B9B466B0007
S1131300ED0F50465B0D01955ED0624A934253D077
S11313105A46D1008022400F120402430A439346E6
S11313205246D1005C4A9446002263443800684027
S113133084460290E41A16430F2E00D9B4E0574BAA
S1131340B6009B599F460300334399466CD1002352
S11313509846023308260393CEE7CB464146039AC8
S11313600197022A65D1019B4A4C9C460023002226
S113137098466BE00300334399464ED0002E00D1CB
S1131380BCE1300000F092FE03000B3B1C2B00DD9F
S1131390ACE11D22D31A5A460100DA4008398E40C6
S11313A01300334399465B468B40984600233C4CDC
S11313B00026241A03939FE751465A46114329D124
S11313C0002293460232B1E7594601431ED05B46E0
S11313D0002B00D19EE1584600F068FE03000B3B51
S11313E01C2B00DD8FE102005946083A91408B46E0
S11313F01D21CB1A5146D9400B0059460B43514687
S11314009B469140264B00221B1A8FE700230122A2
S11314109B468BE75146032288E700239846013315
S113142004260024039367E70323B14603930C26A1
S113143062E7032A00D15CE2019B012A00D0E4E1C7
S113144013409C46002300240022984600211203E6
S1131450130B0A0D12051A432305124C4046224071
S1131460134362465B00D2075B081343190007B0BD
S11314703CBC90469946A246AB46F0BD0023802270
S11314809C4612039846034CE0E70023014C0022DB
S11314909846DBE7FF07000001FCFFFF6C25000016
S11314A00DFCFFFFFFFF0F80D94500D939E100D1C2
S11314B034E1002346464D469A46013C5B460A0EFB
S11314C01B021A430B02170C039313041B0C390061
S11314D0280090460193FFF741FE0200019B8346DA
S11314E05A43280039009146FFF7BEFE350C090423
S11314F00D43A9450DD95B464544013BA84500D998
S11315003AE1A94500D837E102235B429C464544B1
S1131510E3444B46EB1A390018000493FFF71EFE10
S1131520019B05004343390004989946FFF79CFE4C
S1131530330409041B0C0B43994509D943446A1E1F
S1131540984500D91AE1994500D817E1023D434472
S11315504A469B1A5A4612042A4303999346100C8E
S11315600A0C914609045A46090C4E460D00120411
S1131570120C4543059151437243704352190E0CAA
S1131580B218954203D980256D02AC466044150C0F
S113159009041204090C28185218834200D2CEE020
S11315A000D1C8E01D1A53469E1AB24592415242D8
S11315B0AB1A9A46984500D117E139001800FFF795
S11315C0CDFD019B05004343390050460493FFF7CA
S11315D04BFE04980B04310C1943884209D9414449
S11315E06B1E884500D907E1884200D804E1023D1A
S11315F04144049BCB1A180039000493FFF7AEFD55
S1131600019B82464343390004980193FFF72CFE63
S113161001980B043104090C194388420DD953462F
S11316204144013B884500D9E8E0884200D8E5E020
S113163002235B429C464144E244019B2D04CE1AA2
S113164051462943059D4F462A000B04080C1B0CE8
S11316505A4345437B4378435B19170CFB189D425F
S113166003D980256D02AC4660441D0C12041B0492
S1131670120C28189B18864200D293E000D18EE009
S113168001231943A04BE318002B00DC99E04A071F
S113169000D09EE05A46D20106D55A469B4B1A40CA
S11316A080239346DB00E318994A934268DD0123C3
S11316B0029A984C1A400023944698460022C5E6A4
S11316C080224B46120313420AD05B46134206D1D2
S11316D01A431203120BAC4688468E4CB6E64B46B0
S11316E01A431203120BBC468A4CAFE603005A4657
S11316F0283B9A4000239146984657E6584600F006
S1131700D5FC203040E603005246283B9A40002195
S1131710934677E600F0CAFC20305FE6884500D2A5
S1131720C7E64B46DE075D0843465B081E43434657
S1131730DB079A46C2E60025924500D333E7039EB1
S11317405946B446E244B245AD416D424544EB18B6
S11317500139984507D2984200D97FE000D1BCE016
S11317601D1A8B461FE79845FAD1039D5545F2D9BA
S113177043468B461D1A16E79B46CAE61500E7E664
S11317805A46C90852070A435B0590465C0D5A46FF
S11317900123029952021940120B8C4656E6002B83
S11317A000D16FE746444A1EB04529D9110086424C
S11317B000D065E7039A934200D061E762E7012114
S11317C049420120C21A382A21DD029B03409C466B
S11317D038E60F220A40042A00D15BE70A00111DF3
S11317E0914292415242934454E7474BE318002BF1
S11317F0E5DD01225242F2E71D00FAE69A461CE7B3
S1131800B04239D86ED011003AE702933AE71F2A62
S11318103CDC20239B1A0C005846994098404B1EF0
S113182099415B46D440D340204308431A00430700
S113183009D00F230340042B05D00100081D884262
S11318409B415B42D21813023AD50123029A012428
S11318501A400023944698460022F7E502214942A3
S11318608C46039DE344AC46E244AA45AD416D4237
S11318704544ED182D1A96E68A1E03994D008D42B3
S1131880894149424144761803958FE71F2040421D
S1131890C31A5846D8400300202A28D040205D4669
S11318A0821A954029434A1E914119430723002275
S11318B00B4009D00F2300220B400800042BBDD19C
S11318C0010053075202120BC90819430123884629
S11318D00299002419408C46B8E55245BED88B467F
S11318E0002560E6039D9D42C6D3110062E70025F2
S11318F0D8E780225B4612031A43019B1203120BA2
S11319009C468846034CA1E5FF030000FFFFFFFE51
S1131910FE070000FF070000F0B54646D6464F46D6
S11319200C03C0B5CD0F4E00610A440F0C43C10037
S11319305800400D84468A460F001903500F490A87
S11319400143C648760DA846DB0FD200844500D17A
S1131950D8E001204340AB4200D1A6E06046351AEE
S1131960002D00DC05E1002810D10B00134300D149
S1131970D7E06B1E002B00D04BE153469F1ABA45AB
S11319808041641A4042241A01261EE0B34B9E4251
S113199048D080231B041943382D00DD19E11F2D85
S11319A000DD4CE120230F005B1B10009A409F4098
S11319B0E840531E9A41E940074317435346DF1B4F
S11319C0611ABA45A44164420C1B230200D4C5E049
S11319D06402650A002D00D1F6E0280000F066FBE1
S11319E00300083B1F2B00DDE9E020223C00D21A53
S11319F09D40D4409F4025439E4200DDDBE09E1B7A
S1131A00731C1F2B00DD0AE120223800D21A2900A2
S1131A1097402C009140D8407A1E9741DC40002624
S1131A2001430F437B0709D00F233B40042B05D010
S1131A303B1DBB42BF417F42E4191F00230225D551
S1131A40864B01369E4200D1AFE0854B01251C40F8
S1131A5043466207FF08640276051743240B760D9C
S1131A601D4000212403230B0C0D7E4A24051C4336
S1131A701440330523435B00ED075B082B43380018
S1131A8019001CBC90469946A246F0BD0125434668
S1131A906207FF081743E4081D40704B9E4236D08E
S1131AA024037605240B760DDBE76346F31A002B3B
S1131AB000DC94E06046002835D068488642B1D006
S1131AC080273F043943382B00DCFDE00A4317002C
S1131AD000217A1E974157445745804109194442D1
S1131AE00C1923023AD55D4B01369E4200D14BE1DD
S1131AF001225B4B1C407B0817401F43E20717433E
S1131B0064088FE70800104300D024E721E723008E
S1131B103B4300D1B9E18022120314432403240B74
S1131B209FE72E007EE70800104300D1CAE0581E4C
S1131B308446002800D0E7E05244524580416418AE
S1131B404042241817000126230207D50226CFE7B6
S1131B5064462C4300D1B3E12C0067467B0700D0D8
S1131B6062E76307FF081F4301254346E4081D405D
S1131B7093E7002D78D1751C6D056D0D012D00DCEA
S1131B80F2E05046801A8245BF41651A7F42ED1B40
S1131B908446280200D48CE05046171ABA42924177
S1131BA00C1B5542651B984614E701254346002447
S1131BB01D40002755E72A4CF61A2C4032E73D0019
S1131BC028388540002717E7380000F06FFA2030E6
S1131BD006E70A43170000217A1E9741EEE6002B20
S1131BE000D0E5E0731C9C465B055B0D012B00DC1B
S1131BF09FE01A4B9C4500D1C5E0524452458041B8
S1131C00641840422418E7075208174364086646DC
S1131C1008E71248854200D185E01D00BCE6290092
S1131C201F3EF140202B00D17FE04022D31A9D407B
S1131C302F437D1EAF4100240F4300268EE72B0067
S1131C400F00203BDF40202D71D040235D1BA940B5
S1131C500A43511E8A4100211743AFE6FF070000E3
S1131C60FFFF7FFFFFFF0F80002E3ED0B34EB44531
S1131C7045D0802636046D423443382D00DDA8E07B
S1131C801F2D00DD1FE1202627005046761BB7409C
S1131C90E84007435046B040461EB041EC4038434C
S1131CA0171ABA4292410C1B5242A41A664698462D
S1131CB08BE6644667462C4300D08BE6002500265D
S1131CC00027EAE61E00ADE61F2B60DC2027F81A89
S1131CD00F00844687401000D84007436046824086
S1131CE0501E8241D9401743F5E62600504606436C
S1131CF005D0ED43002DD3D0904EB445BDD10C009A
S1131D001700664698468DE68C4883420BD063469E
S1131D10D9E6002D00D096E00800104300D1E2E09F
S1131D200C0017009846854E7CE6002580E70021CC
S1131D308EE7230050460343002E00D0A8E0002B7A
S1131D4000D1DEE00B00134300D16BE65244524550
S1131D5080416418404224181700230200D4FDE691
S1131D60774B66461C405DE6250050460543002E31
S1131D70CFD1002D4FD10C00144300D1A0E00C00B2
S1131D80170098464EE666460024002785E61F00A5
S1131D900800203FF8400700202B00D18EE04020AF
S1131DA0C31A99400A43511E8A410021174392E6FF
S1131DB0002E14D126005046064362D0DB43002B8C
S1131DC05CD187189742924164185242A41866461F
S1131DD087E650462043441EA041002460E7574E46
S1131DE0B4454ED0802636045B423443382B00DDA4
S1131DF07FE01F2B00DD8BE0202627005046F61ADB
S1131E00B740D84007435046B040461EB041074350
S1131E10DC40BF18D6E70D00154300D102E650465A
S1131E20801A8245BF41651A7F42ED1B8446280211
S1131E3000D48DE65046171ABA4292410C1B524206
S1131E40A41A9846EEE50D00154300D16BE7504601
S1131E506707C00807438020E4080003044207D052
S1131E60CD08054204D12C009846D70849070F43F2
S1131E707B0FE4001C43FF00304ED3E52F4EB445E6
S1131E80B4D10C0017006646CCE500270024E8E531
S1131E90002B39D00B00134300D144E7C008670777
S1131EA007438020E40800030442E1D0CB08034246
S1131EB0DED1D70849070F431C00D9E7002171E799
S1131EC000250027E9E52E002700203EF740202DBD
S1131ED02FD04026751BAC4050462043441EA041E1
S1131EE000243843DCE6802400252403134E002715
S1131EF0D3E5504620430700781E87410024BF18CD
S1131F0060E70C0017008DE50C0017000B4E89E507
S1131F101E002700203EF740202B0CD04026F31A49
S1131F209C4050462043441EA04107430024BF1850
S1131F3048E70024D0E70024F3E7C046FF07000089
S1131F40FFFF7FFF30B5134D0A034B00120B5B0DEF
S1131F50C90F0024AB4210DD0F4CA3420FDC8024D8
S1131F600E4D64032243ED1A1F2D0BDD0C48C31ADA
S1131F70DA405442002900D11400200030BD094B3E
S1131F80CC18FAE7084CE840A44663449A4002435C
S1131F90EFE7C046FE0300001D0400003304000008
S1131FA013040000FFFFFF7FEDFBFFFF70B5002867
S1131FB030D0C317C4185C40C50F200000F076F879
S1131FC0174B184A1B1AD21A1F2A18DD164AD21A9E
S1131FD09440002224035B05240B5B0D00211000B8
S1131FE024030A0D240B12052243104C1B05224026
S1131FF013435B00ED075B082B43190070BD210000
S113200091400A000B21081AC4405B052403240BE9
S11320105B0DE3E70025002300240022DEE7C04631
S11320201E0400003304000013040000FFFF0F80AF
S11320308446101C62468C46191C634600E0C04668
S11320401FB500F0EFF8002801D40021C8421FBDDD
S113205010B500F049F84042013010BD10B500F051
S1132060E1F8002801DB002010BD012010BDC046AE
S113207010B500F0D7F8002801DD002010BD0120C4
S113208010BDC04610B500F069F8002801DC00203E
S113209010BD012010BDC04610B500F05FF8002847
S11320A001DA002010BD012010BDC0461C2101230F
S11320B01B04984201D3000C10391B0A984201D327
S11320C0000A08391B09984201D30009043902A205
S11320D0105C40187047C04604030202010101016C
S11320E00000000000000000F0B54F464646D6460A
S11320F05C00C0B51F03DB0F9A46174B0E034D005F
S113210084468046360B6D0DC90F91463F0B640D16
S113211001209D4208D09C4201D0A5420BD01CBC9A
S113212090469946A246F0BD63463343F7D1AC428C
S1132130F5D13A43F3D10120BE42F0D1C845EED1E6
S1132140514507D0002DEAD163461E433000461E98
S1132150B041E4E70020E2E7FF070000F0B54546A0
S1132160DE4657464E46E0B51F033D0B2C4F0E038B
S11321704C00AB465D008446360B640DC90F904697
S11321806D0DDB0FBC422AD0254FBD422DD0002C53
S11321900FD130430700814678427841C0B2002D08
S11321A017D15F463A4314D14B460020002B0AD086
S11321B006E0002D02D15846024301D0994218D0BE
S11321C04842012108433CBC90469946A246AB468E
S11321D0F0BD0028F2D00120013B1843F3E737009B
S11321E00743D1D002204042EDE75F461743CED0EB
S11321F0F8E7AC42E4DC03DA481E01210843E2E7D5
S11322005E45DDD806D000205E45DCD20123481EA1
S11322101843D8E7C445D3D80020C445F6D3D2E741
S1132220FF070000F0B54E464546DE4657465C00C3
S1132230E0B51F03DB0F99462A4B0E034D00C90F6F
S11322408446360B6D0D8B4690463F0B640D9D42C4
S113225020D0244B9C4222D0002D12D13043434243
S11322604341DBB2002C1FD0002B0CD04B46012085
S1132270013B034318003CBC90469946A246AB463A
S1132280F0BD002C16D0CB4517D05B465942012334
S11322900B43EFE7310002230143EBD1D9E73900C7
S11322A002231143E6D1D7E73A43DDD100230028C6
S11322B0E0D0EAE73A43E6D1E7E7A542E5DC05DB0F
S11322C0BE42E2D807D00023BE42D3D259460123EE
S11322D001390B43CEE7C445D7D80023C445F5D311
S11322E0C8E7C046FF07000070B50D4E0D4D002431
S11322F0AD1BAD1005D0A300F35801349847A54297
S1132300F9D100F055F9084E084D0024AD1BAD106D
S113231005D0A300F35801349847A542F9D170BD04
S1132320BC250000BC250000BC250000C42500001D
S1132330034B10B5002B02D0024800F005F810BD85
S1132340000000005923000010B501000023002202
S1132350002000F01FF810BD70B5094B094CE41AB9
S1132360A41009D0084AA518AD00ED182B68013C4B
S11323709847043D002CF9D100F024F970BDC04603
S1132380D0250000D4250000FFFFFF3F7047C04662
S11323907047C046F0B54E464546DE465746E0B562
S11323A0364D83B00600286898460F009146FFF723
S11323B0EDFF334B1C68A4235B00E058002852D087
S11323C043681F2B13DC5A1C0192002E28D1019A5A
S11323D002339B0042601F502868FFF7D9FF00209A
S11323E003B03CBC90469946A246AB46F0BD254B93
S11323F0002B3DD0C820400000E000BF002837D0AB
S1132400A42200235200A15843600160A05040322E
S1132410835004328350013301930023002ED6D01D
S11324209A00924682444A46882154466250C42205
S11324305200914681444A468739994012688B4636
S11324400A4394464A46614611608422414652003A
S1132450A150022EBBD102005C468D32FF321168BE
S11324600C431460B3E720004D30FF30E050A7E781
S11324702868FFF78DFF01204042B1E738040020AF
S1132480AC250000000000005265636962692061A8
S11324900A0000005265636962692062204D644746
S11324A00A000000456E766961646F0A000000004E
S11324B05265636962692063207461636F730A0003
S11324C052656369626920640A00000052656365AD
S11324D069766564206D6573736167652E20496450
S11324E03A2025782C2044617461206C656E6774F1
S11324F0683A2025642C20446174613A000000008D
S1132500202564000D0A000016070000FA060000EA
S11325101A07000092060000220700009A06000035
S1132520A2060000AA060000B2060000BA060000D7
S1132530C2060000CA060000D2060000DA06000047
S1132540E2060000EA060000F20600004A0B000062
S1132550680B0000740B0000800B00008C0B000063
S1132560980B00000C0030000B0001D2A8140000EE
S11325708A14000044140000621300004414000094
S11325807C14000044140000621300008A1400004C
S11325908A1400007C140000621300005A13000027
S11325A05A1300005A130000C01600001000002047
S11325B0F8B5C046F8BC08BC9E46704731230000FD
S11325C0DD000000F8B5C046F8BC08BC9E46704764
S10725D0B50000004E
S11325D440420F00FFFFFFFFFFFFFFFF000000006A
S11325E400000000FC02002064030020CC0300204F
S11325F400000000000000000000000000000000D3
S113260400000000000000000000000000000000C2
S113261400000000000000000000000000000000B2
S113262400000000000000000000000000000000A2
S11326340000000000000000000000000000000092
S11326440000000000000000000000000000000082
S11326540000000000000000000000000000000072
S11326640000000000000000000000000000000062
S11326740000000000000000000000000000000052
S11326840000000000000000010000000000000041
S11326940E33CDAB34126DE6ECDE05000B00000006
S11326A40000000000000000000000000000000022
S11326B40000000000000000000000000000000012
S11326C40000000000000000000000000000000002
S11326D400000000000000000000000000000000F2
S10F2A0400000000000000008C04002012
S9030000FC
